{
  "_format": "hh-sol-artifact-1",
  "contractName": "User",
  "sourceName": "contracts/User.sol",
  "abi": [
    {
      "inputs": [
        {
          "internalType": "uint256",
          "name": "_username",
          "type": "uint256"
        }
      ],
      "stateMutability": "nonpayable",
      "type": "constructor"
    },
    {
      "anonymous": false,
      "inputs": [
        {
          "indexed": false,
          "internalType": "uint256",
          "name": "_followingCount",
          "type": "uint256"
        },
        {
          "indexed": false,
          "internalType": "uint256",
          "name": "_userName",
          "type": "uint256"
        },
        {
          "indexed": false,
          "internalType": "address",
          "name": "_address",
          "type": "address"
        }
      ],
      "name": "iAmFollowing",
      "type": "event"
    },
    {
      "anonymous": false,
      "inputs": [
        {
          "indexed": false,
          "internalType": "uint256",
          "name": "_followedCount",
          "type": "uint256"
        },
        {
          "indexed": false,
          "internalType": "uint256",
          "name": "_userName",
          "type": "uint256"
        },
        {
          "indexed": false,
          "internalType": "address",
          "name": "_address",
          "type": "address"
        }
      ],
      "name": "iGotFollowed",
      "type": "event"
    },
    {
      "inputs": [
        {
          "internalType": "address",
          "name": "_address",
          "type": "address"
        }
      ],
      "name": "chat",
      "outputs": [],
      "stateMutability": "nonpayable",
      "type": "function"
    },
    {
      "inputs": [
        {
          "internalType": "uint256",
          "name": "",
          "type": "uint256"
        }
      ],
      "name": "chatList",
      "outputs": [
        {
          "internalType": "address",
          "name": "",
          "type": "address"
        }
      ],
      "stateMutability": "view",
      "type": "function"
    },
    {
      "inputs": [
        {
          "internalType": "address",
          "name": "_address",
          "type": "address"
        }
      ],
      "name": "follow",
      "outputs": [],
      "stateMutability": "nonpayable",
      "type": "function"
    },
    {
      "inputs": [
        {
          "internalType": "uint256",
          "name": "",
          "type": "uint256"
        }
      ],
      "name": "followedArray",
      "outputs": [
        {
          "internalType": "uint256",
          "name": "userName",
          "type": "uint256"
        },
        {
          "internalType": "address",
          "name": "userAddress",
          "type": "address"
        }
      ],
      "stateMutability": "view",
      "type": "function"
    },
    {
      "inputs": [],
      "name": "followedCount",
      "outputs": [
        {
          "internalType": "uint256",
          "name": "",
          "type": "uint256"
        }
      ],
      "stateMutability": "view",
      "type": "function"
    },
    {
      "inputs": [
        {
          "internalType": "uint256",
          "name": "",
          "type": "uint256"
        }
      ],
      "name": "followingArray",
      "outputs": [
        {
          "internalType": "uint256",
          "name": "userName",
          "type": "uint256"
        },
        {
          "internalType": "address",
          "name": "userAddress",
          "type": "address"
        }
      ],
      "stateMutability": "view",
      "type": "function"
    },
    {
      "inputs": [],
      "name": "followingCount",
      "outputs": [
        {
          "internalType": "uint256",
          "name": "",
          "type": "uint256"
        }
      ],
      "stateMutability": "view",
      "type": "function"
    },
    {
      "inputs": [
        {
          "internalType": "uint256",
          "name": "_username",
          "type": "uint256"
        }
      ],
      "name": "getFollowed",
      "outputs": [],
      "stateMutability": "nonpayable",
      "type": "function"
    },
    {
      "inputs": [],
      "name": "getFollowers",
      "outputs": [
        {
          "components": [
            {
              "internalType": "uint256",
              "name": "userName",
              "type": "uint256"
            },
            {
              "internalType": "address",
              "name": "userAddress",
              "type": "address"
            }
          ],
          "internalType": "struct User.Follow[]",
          "name": "",
          "type": "tuple[]"
        }
      ],
      "stateMutability": "view",
      "type": "function"
    },
    {
      "inputs": [],
      "name": "getFollowing",
      "outputs": [
        {
          "components": [
            {
              "internalType": "uint256",
              "name": "userName",
              "type": "uint256"
            },
            {
              "internalType": "address",
              "name": "userAddress",
              "type": "address"
            }
          ],
          "internalType": "struct User.Follow[]",
          "name": "",
          "type": "tuple[]"
        }
      ],
      "stateMutability": "view",
      "type": "function"
    },
    {
      "inputs": [
        {
          "internalType": "uint256",
          "name": "_content",
          "type": "uint256"
        }
      ],
      "name": "post",
      "outputs": [],
      "stateMutability": "nonpayable",
      "type": "function"
    },
    {
      "inputs": [
        {
          "internalType": "uint256",
          "name": "",
          "type": "uint256"
        }
      ],
      "name": "postList",
      "outputs": [
        {
          "internalType": "address",
          "name": "",
          "type": "address"
        }
      ],
      "stateMutability": "view",
      "type": "function"
    },
    {
      "inputs": [],
      "name": "sendUsername",
      "outputs": [
        {
          "internalType": "uint256",
          "name": "",
          "type": "uint256"
        }
      ],
      "stateMutability": "view",
      "type": "function"
    },
    {
      "inputs": [],
      "name": "userAddress",
      "outputs": [
        {
          "internalType": "address",
          "name": "",
          "type": "address"
        }
      ],
      "stateMutability": "view",
      "type": "function"
    },
    {
      "inputs": [],
      "name": "userName",
      "outputs": [
        {
          "internalType": "uint256",
          "name": "",
          "type": "uint256"
        }
      ],
      "stateMutability": "view",
      "type": "function"
    }
  ],
  "bytecode": "0x60e06040523480156200001157600080fd5b506040516200252e3803806200252e8339818101604052810190620000379190620000ee565b80608081815250503373ffffffffffffffffffffffffffffffffffffffff1660a08173ffffffffffffffffffffffffffffffffffffffff16815250503073ffffffffffffffffffffffffffffffffffffffff1660c08173ffffffffffffffffffffffffffffffffffffffff16815250505062000120565b600080fd5b6000819050919050565b620000c881620000b3565b8114620000d457600080fd5b50565b600081519050620000e881620000bd565b92915050565b600060208284031215620001075762000106620000ae565b5b60006200011784828501620000d7565b91505092915050565b60805160a05160c0516123b762000177600039600050506000818161078301528181610a020152610b6401526000818161072901528181610883015281816109d501528181610a230152610b3e01526123b76000f3fe60806040523480156200001157600080fd5b50600436106200010c5760003560e01c806346d57a9211620000a5578063caa5863c116200006f578063caa5863c14620002be578063d89537f914620002de578063e0cd1c811462000315578063e4128fb31462000337576200010c565b806346d57a92146200023a5780634dbf27cc146200025a57806370019b35146200027a5780638d8039ad146200029c576200010c565b80631126805d11620000e75780631126805d146200017557806323f1470214620001ab5780633a02de3414620001cd5780633a6209c31462000204576200010c565b80630c5d356414620001115780630ce492cf14620001315780630d79f5611462000153575b600080fd5b6200012f600480360381019062000129919062000ccb565b62000359565b005b6200013b620003fd565b6040516200014a919062000d18565b60405180910390f35b6200015d62000403565b6040516200016c919062000e47565b60405180910390f35b6200019360048036038101906200018d919062000e9c565b620004c4565b604051620001a2919062000edf565b60405180910390f35b620001b562000504565b604051620001c4919062000e47565b60405180910390f35b620001eb6004803603810190620001e5919062000e9c565b620005c5565b604051620001fb92919062000efc565b60405180910390f35b6200022260048036038101906200021c919062000e9c565b6200061a565b60405162000231919062000edf565b60405180910390f35b62000258600480360381019062000252919062000e9c565b6200065a565b005b62000278600480360381019062000272919062000ccb565b62000781565b005b62000284620009d3565b60405162000293919062000d18565b60405180910390f35b620002a6620009f7565b604051620002b5919062000d18565b60405180910390f35b620002dc6004803603810190620002d6919062000e9c565b620009fd565b005b620002fc6004803603810190620002f6919062000e9c565b62000ae5565b6040516200030c92919062000efc565b60405180910390f35b6200031f62000b3a565b6040516200032e919062000d18565b60405180910390f35b6200034162000b62565b60405162000350919062000edf565b60405180910390f35b6000816040516200036a9062000c45565b62000376919062000edf565b604051809103906000f08015801562000393573d6000803e3d6000fd5b5090506005819080600181540180825580915050600190039060005260206000200160009091909190916101000a81548173ffffffffffffffffffffffffffffffffffffffff021916908373ffffffffffffffffffffffffffffffffffffffff1602179055505050565b60005481565b60606003805480602002602001604051908101604052809291908181526020016000905b82821015620004bb5783829060005260206000209060020201604051806040016040529081600082015481526020016001820160009054906101000a900473ffffffffffffffffffffffffffffffffffffffff1673ffffffffffffffffffffffffffffffffffffffff1673ffffffffffffffffffffffffffffffffffffffff16815250508152602001906001019062000427565b50505050905090565b60058181548110620004d557600080fd5b906000526020600020016000915054906101000a900473ffffffffffffffffffffffffffffffffffffffff1681565b60606001805480602002602001604051908101604052809291908181526020016000905b82821015620005bc5783829060005260206000209060020201604051806040016040529081600082015481526020016001820160009054906101000a900473ffffffffffffffffffffffffffffffffffffffff1673ffffffffffffffffffffffffffffffffffffffff1673ffffffffffffffffffffffffffffffffffffffff16815250508152602001906001019062000528565b50505050905090565b60038181548110620005d657600080fd5b90600052602060002090600202016000915090508060000154908060010160009054906101000a900473ffffffffffffffffffffffffffffffffffffffff16905082565b600481815481106200062b57600080fd5b906000526020600020016000915054906101000a900473ffffffffffffffffffffffffffffffffffffffff1681565b600160405180604001604052808381526020013373ffffffffffffffffffffffffffffffffffffffff1681525090806001815401808255809150506001900390600052602060002090600202016000909190919091506000820151816000015560208201518160010160006101000a81548173ffffffffffffffffffffffffffffffffffffffff021916908373ffffffffffffffffffffffffffffffffffffffff16021790555050507f6203ae44702d9c89cb081e25a648bf3884676ff73858289c4f7aa9b00786d84d6002547f0000000000000000000000000000000000000000000000000000000000000000336040516200075a9392919062000f29565b60405180910390a160016002600082825462000777919062000f95565b9250508190555050565b7f000000000000000000000000000000000000000000000000000000000000000073ffffffffffffffffffffffffffffffffffffffff163373ffffffffffffffffffffffffffffffffffffffff161462000812576040517f08c379a0000000000000000000000000000000000000000000000000000000008152600401620008099062001079565b60405180910390fd5b6200081d8162000b86565b1562000860576040517f08c379a0000000000000000000000000000000000000000000000000000000008152600401620008579062001111565b60405180910390fd5b60008190508073ffffffffffffffffffffffffffffffffffffffff166346d57a927f00000000000000000000000000000000000000000000000000000000000000006040518263ffffffff1660e01b8152600401620008c0919062000d18565b600060405180830381600087803b158015620008db57600080fd5b505af1158015620008f0573d6000803e3d6000fd5b505050507fa0ce80e2dd45c29fed1e85edd219313a88cf85ca9abae4ec281f7af779e58a9a6000548273ffffffffffffffffffffffffffffffffffffffff1663e0cd1c816040518163ffffffff1660e01b815260040160206040518083038186803b1580156200095f57600080fd5b505afa15801562000974573d6000803e3d6000fd5b505050506040513d601f19601f820116820180604052508101906200099a91906200114a565b84604051620009ac9392919062000f29565b60405180910390a16001600080828254620009c8919062000f95565b925050819055505050565b7f000000000000000000000000000000000000000000000000000000000000000081565b60025481565b6000817f00000000000000000000000000000000000000000000000000000000000000007f000000000000000000000000000000000000000000000000000000000000000060405162000a509062000c53565b62000a5e939291906200117c565b604051809103906000f08015801562000a7b573d6000803e3d6000fd5b5090506004819080600181540180825580915050600190039060005260206000200160009091909190916101000a81548173ffffffffffffffffffffffffffffffffffffffff021916908373ffffffffffffffffffffffffffffffffffffffff1602179055505050565b6001818154811062000af657600080fd5b90600052602060002090600202016000915090508060000154908060010160009054906101000a900473ffffffffffffffffffffffffffffffffffffffff16905082565b60007f0000000000000000000000000000000000000000000000000000000000000000905090565b7f000000000000000000000000000000000000000000000000000000000000000081565b6000806000905060005b60018054905081101562000c3b578373ffffffffffffffffffffffffffffffffffffffff166001828154811062000bcc5762000bcb620011b9565b5b906000526020600020906002020160010160009054906101000a900473ffffffffffffffffffffffffffffffffffffffff1673ffffffffffffffffffffffffffffffffffffffff16141562000c25576001915062000c3b565b808062000c3290620011e8565b91505062000b90565b5080915050919050565b610770806200123783390190565b6109db80620019a783390190565b600080fd5b600073ffffffffffffffffffffffffffffffffffffffff82169050919050565b600062000c938262000c66565b9050919050565b62000ca58162000c86565b811462000cb157600080fd5b50565b60008135905062000cc58162000c9a565b92915050565b60006020828403121562000ce45762000ce362000c61565b5b600062000cf48482850162000cb4565b91505092915050565b6000819050919050565b62000d128162000cfd565b82525050565b600060208201905062000d2f600083018462000d07565b92915050565b600081519050919050565b600082825260208201905092915050565b6000819050602082019050919050565b62000d6c8162000cfd565b82525050565b62000d7d8162000c86565b82525050565b60408201600082015162000d9b600085018262000d61565b50602082015162000db0602085018262000d72565b50505050565b600062000dc4838362000d83565b60408301905092915050565b6000602082019050919050565b600062000dea8262000d35565b62000df6818562000d40565b935062000e038362000d51565b8060005b8381101562000e3a57815162000e1e888262000db6565b975062000e2b8362000dd0565b92505060018101905062000e07565b5085935050505092915050565b6000602082019050818103600083015262000e63818462000ddd565b905092915050565b62000e768162000cfd565b811462000e8257600080fd5b50565b60008135905062000e968162000e6b565b92915050565b60006020828403121562000eb55762000eb462000c61565b5b600062000ec58482850162000e85565b91505092915050565b62000ed98162000c86565b82525050565b600060208201905062000ef6600083018462000ece565b92915050565b600060408201905062000f13600083018562000d07565b62000f22602083018462000ece565b9392505050565b600060608201905062000f40600083018662000d07565b62000f4f602083018562000d07565b62000f5e604083018462000ece565b949350505050565b7f4e487b7100000000000000000000000000000000000000000000000000000000600052601160045260246000fd5b600062000fa28262000cfd565b915062000faf8362000cfd565b9250827fffffffffffffffffffffffffffffffffffffffffffffffffffffffffffffffff0382111562000fe75762000fe662000f66565b5b828201905092915050565b600082825260208201905092915050565b7f556e617574686f72697a65642061636365737320617474656d70742c2072657160008201527f756573742064656e696564000000000000000000000000000000000000000000602082015250565b600062001061602b8362000ff2565b91506200106e8262001003565b604082019050919050565b60006020820190508181036000830152620010948162001052565b9050919050565b7f536f7272792c20796f752061726520616c726561647920666f6c6c6f77696e6760008201527f2074686973207573657200000000000000000000000000000000000000000000602082015250565b6000620010f9602a8362000ff2565b915062001106826200109b565b604082019050919050565b600060208201905081810360008301526200112c81620010ea565b9050919050565b600081519050620011448162000e6b565b92915050565b60006020828403121562001163576200116262000c61565b5b6000620011738482850162001133565b91505092915050565b600060608201905062001193600083018662000d07565b620011a2602083018562000ece565b620011b1604083018462000d07565b949350505050565b7f4e487b7100000000000000000000000000000000000000000000000000000000600052603260045260246000fd5b6000620011f58262000cfd565b91507fffffffffffffffffffffffffffffffffffffffffffffffffffffffffffffffff8214156200122b576200122a62000f66565b5b60018201905091905056fe60c060405234801561001057600080fd5b5060405161077038038061077083398181016040528101906100329190610103565b3373ffffffffffffffffffffffffffffffffffffffff1660808173ffffffffffffffffffffffffffffffffffffffff16815250508073ffffffffffffffffffffffffffffffffffffffff1660a08173ffffffffffffffffffffffffffffffffffffffff168152505050610130565b600080fd5b600073ffffffffffffffffffffffffffffffffffffffff82169050919050565b60006100d0826100a5565b9050919050565b6100e0816100c5565b81146100eb57600080fd5b50565b6000815190506100fd816100d7565b92915050565b600060208284031215610119576101186100a0565b5b6000610127848285016100ee565b91505092915050565b60805160a05161061b61015560003960006101ea01526000610195015261061b6000f3fe608060405234801561001057600080fd5b50600436106100415760003560e01c80630387a7a014610046578063c156254714610062578063ce6d41de14610080575b600080fd5b610060600480360381019061005b919061038f565b61009e565b005b61006a610191565b60405161007791906103d7565b60405180910390f35b61008861024e565b6040516100959190610520565b60405180910390f35b6100a6610191565b6100e5576040517f08c379a00000000000000000000000000000000000000000000000000000000081526004016100dc906105c5565b60405180910390fd5b600060405180604001604052803373ffffffffffffffffffffffffffffffffffffffff16815260200183815250908060018154018082558091505060019003906000526020600020906002020160009091909190915060008201518160000160006101000a81548173ffffffffffffffffffffffffffffffffffffffff021916908373ffffffffffffffffffffffffffffffffffffffff16021790555060208201518160010155505050565b60007f000000000000000000000000000000000000000000000000000000000000000073ffffffffffffffffffffffffffffffffffffffff163373ffffffffffffffffffffffffffffffffffffffff16148061023857507f000000000000000000000000000000000000000000000000000000000000000073ffffffffffffffffffffffffffffffffffffffff163373ffffffffffffffffffffffffffffffffffffffff16145b15610246576001905061024b565b600090505b90565b6060610258610191565b610297576040517f08c379a000000000000000000000000000000000000000000000000000000000815260040161028e906105c5565b60405180910390fd5b6000805480602002602001604051908101604052809291908181526020016000905b8282101561034b57838290600052602060002090600202016040518060400160405290816000820160009054906101000a900473ffffffffffffffffffffffffffffffffffffffff1673ffffffffffffffffffffffffffffffffffffffff1673ffffffffffffffffffffffffffffffffffffffff168152602001600182015481525050815260200190600101906102b9565b50505050905090565b600080fd5b6000819050919050565b61036c81610359565b811461037757600080fd5b50565b60008135905061038981610363565b92915050565b6000602082840312156103a5576103a4610354565b5b60006103b38482850161037a565b91505092915050565b60008115159050919050565b6103d1816103bc565b82525050565b60006020820190506103ec60008301846103c8565b92915050565b600081519050919050565b600082825260208201905092915050565b6000819050602082019050919050565b600073ffffffffffffffffffffffffffffffffffffffff82169050919050565b60006104498261041e565b9050919050565b6104598161043e565b82525050565b61046881610359565b82525050565b6040820160008201516104846000850182610450565b506020820151610497602085018261045f565b50505050565b60006104a9838361046e565b60408301905092915050565b6000602082019050919050565b60006104cd826103f2565b6104d781856103fd565b93506104e28361040e565b8060005b838110156105135781516104fa888261049d565b9750610505836104b5565b9250506001810190506104e6565b5085935050505092915050565b6000602082019050818103600083015261053a81846104c2565b905092915050565b600082825260208201905092915050565b7f556e617574686f72697a65642061636365737320617474656d70742c2072657160008201527f756573742064656e696564000000000000000000000000000000000000000000602082015250565b60006105af602b83610542565b91506105ba82610553565b604082019050919050565b600060208201905081810360008301526105de816105a2565b905091905056fea2646970667358221220b32073d5736054a1d67f2f0ad472715d27e6c013a2ee2dc9335d384f5951e65e64736f6c6343000809003360e060405234801561001057600080fd5b506040516109db3803806109db83398181016040528101906100329190610117565b82608081815250508060a081815250508173ffffffffffffffffffffffffffffffffffffffff1660c08173ffffffffffffffffffffffffffffffffffffffff168152505050505061016a565b600080fd5b6000819050919050565b61009681610083565b81146100a157600080fd5b50565b6000815190506100b38161008d565b92915050565b600073ffffffffffffffffffffffffffffffffffffffff82169050919050565b60006100e4826100b9565b9050919050565b6100f4816100d9565b81146100ff57600080fd5b50565b600081519050610111816100eb565b92915050565b6000806000606084860312156101305761012f61007e565b5b600061013e868287016100a4565b935050602061014f86828701610102565b9250506040610160868287016100a4565b9150509250925092565b60805160a05160c051610842610199600039600061043c0152600061017e015260006101a201526108426000f3fe608060405234801561001057600080fd5b506004361061007d5760003560e01c8063a4e41e571161005b578063a4e41e57146100ee578063d1dc9bd81461010a578063d504ea1d14610128578063e4128fb3146101465761007d565b80633220520a1461008257806370019b35146100b25780638a4d5a67146100d0575b600080fd5b61009c60048036038101906100979190610570565b610164565b6040516100a991906105b6565b60405180910390f35b6100ba61017c565b6040516100c791906105b6565b60405180910390f35b6100d86101a0565b6040516100e591906105b6565b60405180910390f35b61010860048036038101906101039190610570565b6101c4565b005b6101126103a6565b60405161011f91906105b6565b60405180910390f35b6101306103ac565b60405161013d919061068f565b60405180910390f35b61014e61043a565b60405161015b91906106c0565b60405180910390f35b60026020528060005260406000206000915090505481565b7f000000000000000000000000000000000000000000000000000000000000000081565b7f000000000000000000000000000000000000000000000000000000000000000081565b6101cd8161045e565b156102e1576000600260008373ffffffffffffffffffffffffffffffffffffffff1673ffffffffffffffffffffffffffffffffffffffff16815260200190815260200160002054141561027d576001600260008373ffffffffffffffffffffffffffffffffffffffff1673ffffffffffffffffffffffffffffffffffffffff168152602001908152602001600020819055506001600080828254610271919061070a565b925050819055506102dc565b6000600260008373ffffffffffffffffffffffffffffffffffffffff1673ffffffffffffffffffffffffffffffffffffffff1681526020019081526020016000208190555060016000808282546102d49190610760565b925050819055505b6103a3565b6001819080600181540180825580915050600190039060005260206000200160009091909190916101000a81548173ffffffffffffffffffffffffffffffffffffffff021916908373ffffffffffffffffffffffffffffffffffffffff1602179055506001600260008373ffffffffffffffffffffffffffffffffffffffff1673ffffffffffffffffffffffffffffffffffffffff16815260200190815260200160002081905550600160008082825461039b919061070a565b925050819055505b50565b60005481565b6060600180548060200260200160405190810160405280929190818152602001828054801561043057602002820191906000526020600020905b8160009054906101000a900473ffffffffffffffffffffffffffffffffffffffff1673ffffffffffffffffffffffffffffffffffffffff16815260200190600101908083116103e6575b5050505050905090565b7f000000000000000000000000000000000000000000000000000000000000000081565b6000806000905060005b600180549050811015610503578373ffffffffffffffffffffffffffffffffffffffff16600182815481106104a05761049f610794565b5b9060005260206000200160009054906101000a900473ffffffffffffffffffffffffffffffffffffffff1673ffffffffffffffffffffffffffffffffffffffff1614156104f05760019150610503565b80806104fb906107c3565b915050610468565b5080915050919050565b600080fd5b600073ffffffffffffffffffffffffffffffffffffffff82169050919050565b600061053d82610512565b9050919050565b61054d81610532565b811461055857600080fd5b50565b60008135905061056a81610544565b92915050565b6000602082840312156105865761058561050d565b5b60006105948482850161055b565b91505092915050565b6000819050919050565b6105b08161059d565b82525050565b60006020820190506105cb60008301846105a7565b92915050565b600081519050919050565b600082825260208201905092915050565b6000819050602082019050919050565b61060681610532565b82525050565b600061061883836105fd565b60208301905092915050565b6000602082019050919050565b600061063c826105d1565b61064681856105dc565b9350610651836105ed565b8060005b83811015610682578151610669888261060c565b975061067483610624565b925050600181019050610655565b5085935050505092915050565b600060208201905081810360008301526106a98184610631565b905092915050565b6106ba81610532565b82525050565b60006020820190506106d560008301846106b1565b92915050565b7f4e487b7100000000000000000000000000000000000000000000000000000000600052601160045260246000fd5b60006107158261059d565b91506107208361059d565b9250827fffffffffffffffffffffffffffffffffffffffffffffffffffffffffffffffff03821115610755576107546106db565b5b828201905092915050565b600061076b8261059d565b91506107768361059d565b925082821015610789576107886106db565b5b828203905092915050565b7f4e487b7100000000000000000000000000000000000000000000000000000000600052603260045260246000fd5b60006107ce8261059d565b91507fffffffffffffffffffffffffffffffffffffffffffffffffffffffffffffffff821415610801576108006106db565b5b60018201905091905056fea2646970667358221220da7a841a9b40fea53aea10cf6d0dbc95753dafc2d07fd52d888b8310ef8eacfa64736f6c63430008090033a2646970667358221220b98511d03d32cac9093b3e789353863555bc1a1598b702d538f89daf35abd12664736f6c63430008090033",
  "linkReferences": {},
  "deployedLinkReferences": {}
}